{
  "_format": "hh-sol-artifact-1",
  "contractName": "Ballot",
  "sourceName": "contracts/Ballot.sol",
  "abi": [
    {
      "inputs": [
        {
          "internalType": "bytes32[]",
          "name": "proposalNames",
          "type": "bytes32[]"
        }
      ],
      "stateMutability": "nonpayable",
      "type": "constructor"
    },
    {
      "inputs": [],
      "name": "chairperson",
      "outputs": [
        {
          "internalType": "address",
          "name": "",
          "type": "address"
        }
      ],
      "stateMutability": "view",
      "type": "function"
    },
    {
      "inputs": [
        {
          "internalType": "address",
          "name": "to",
          "type": "address"
        }
      ],
      "name": "delegate",
      "outputs": [],
      "stateMutability": "nonpayable",
      "type": "function"
    },
    {
      "inputs": [],
      "name": "getProposals",
      "outputs": [
        {
          "components": [
            {
              "internalType": "bytes32",
              "name": "name",
              "type": "bytes32"
            },
            {
              "internalType": "uint256",
              "name": "voteCount",
              "type": "uint256"
            }
          ],
          "internalType": "struct Ballot.Proposal[]",
          "name": "",
          "type": "tuple[]"
        }
      ],
      "stateMutability": "view",
      "type": "function"
    },
    {
      "inputs": [
        {
          "internalType": "uint256",
          "name": "proposal",
          "type": "uint256"
        }
      ],
      "name": "getVotesByProposal",
      "outputs": [
        {
          "internalType": "uint256",
          "name": "",
          "type": "uint256"
        }
      ],
      "stateMutability": "view",
      "type": "function"
    },
    {
      "inputs": [
        {
          "internalType": "address",
          "name": "voter",
          "type": "address"
        }
      ],
      "name": "giveRightToVote",
      "outputs": [],
      "stateMutability": "nonpayable",
      "type": "function"
    },
    {
      "inputs": [
        {
          "internalType": "uint256",
          "name": "",
          "type": "uint256"
        }
      ],
      "name": "proposals",
      "outputs": [
        {
          "internalType": "bytes32",
          "name": "name",
          "type": "bytes32"
        },
        {
          "internalType": "uint256",
          "name": "voteCount",
          "type": "uint256"
        }
      ],
      "stateMutability": "view",
      "type": "function"
    },
    {
      "inputs": [
        {
          "internalType": "uint256",
          "name": "proposal",
          "type": "uint256"
        }
      ],
      "name": "vote",
      "outputs": [],
      "stateMutability": "nonpayable",
      "type": "function"
    },
    {
      "inputs": [
        {
          "internalType": "address",
          "name": "",
          "type": "address"
        }
      ],
      "name": "voters",
      "outputs": [
        {
          "internalType": "uint256",
          "name": "weight",
          "type": "uint256"
        },
        {
          "internalType": "bool",
          "name": "voted",
          "type": "bool"
        },
        {
          "internalType": "address",
          "name": "delegate",
          "type": "address"
        },
        {
          "internalType": "uint256",
          "name": "vote",
          "type": "uint256"
        }
      ],
      "stateMutability": "view",
      "type": "function"
    },
    {
      "inputs": [],
      "name": "winnerName",
      "outputs": [
        {
          "internalType": "bytes32",
          "name": "winnerName_",
          "type": "bytes32"
        }
      ],
      "stateMutability": "view",
      "type": "function"
    },
    {
      "inputs": [],
      "name": "winningProposal",
      "outputs": [
        {
          "internalType": "uint256",
          "name": "winningProposal_",
          "type": "uint256"
        }
      ],
      "stateMutability": "view",
      "type": "function"
    }
  ],
  "bytecode": "0x60806040523480156200001157600080fd5b506040516200164e3803806200164e83398181016040528101906200003791906200033a565b336000806101000a81548173ffffffffffffffffffffffffffffffffffffffff021916908373ffffffffffffffffffffffffffffffffffffffff16021790555060018060008060009054906101000a900473ffffffffffffffffffffffffffffffffffffffff1673ffffffffffffffffffffffffffffffffffffffff1673ffffffffffffffffffffffffffffffffffffffff1681526020019081526020016000206000018190555060005b81518110156200016e57600260405180604001604052808484815181106200010f576200010e6200038b565b5b6020026020010151815260200160008152509080600181540180825580915050600190039060005260206000209060020201600090919091909150600082015181600001556020820151816001015550508080600101915050620000e2565b5050620003ba565b6000604051905090565b600080fd5b600080fd5b600080fd5b6000601f19601f8301169050919050565b7f4e487b7100000000000000000000000000000000000000000000000000000000600052604160045260246000fd5b620001da826200018f565b810181811067ffffffffffffffff82111715620001fc57620001fb620001a0565b5b80604052505050565b60006200021162000176565b90506200021f8282620001cf565b919050565b600067ffffffffffffffff821115620002425762000241620001a0565b5b602082029050602081019050919050565b600080fd5b6000819050919050565b6200026d8162000258565b81146200027957600080fd5b50565b6000815190506200028d8162000262565b92915050565b6000620002aa620002a48462000224565b62000205565b90508083825260208201905060208402830185811115620002d057620002cf62000253565b5b835b81811015620002fd5780620002e888826200027c565b845260208401935050602081019050620002d2565b5050509392505050565b600082601f8301126200031f576200031e6200018a565b5b81516200033184826020860162000293565b91505092915050565b60006020828403121562000353576200035262000180565b5b600082015167ffffffffffffffff81111562000374576200037362000185565b5b620003828482850162000307565b91505092915050565b7f4e487b7100000000000000000000000000000000000000000000000000000000600052603260045260246000fd5b61128480620003ca6000396000f3fe608060405234801561001057600080fd5b506004361061009e5760003560e01c8063609ff1bd11610066578063609ff1bd1461015a57806362564c48146101785780639e7b8d6114610196578063a3ec138d146101b2578063e2ba53f0146101e55761009e565b80630121b93f146100a3578063013cf08b146100bf5780632e4176cf146100f05780634c13e64d1461010e5780635c19a95c1461013e575b600080fd5b6100bd60048036038101906100b89190610b18565b610203565b005b6100d960048036038101906100d49190610b18565b610349565b6040516100e7929190610b6d565b60405180910390f35b6100f861037d565b6040516101059190610bd7565b60405180910390f35b61012860048036038101906101239190610b18565b6103a1565b6040516101359190610bf2565b60405180910390f35b61015860048036038101906101539190610c39565b6103d0565b005b61016261076a565b60405161016f9190610bf2565b60405180910390f35b6101806107ec565b60405161018d9190610d62565b60405180910390f35b6101b060048036038101906101ab9190610c39565b61085f565b005b6101cc60048036038101906101c79190610c39565b610a4c565b6040516101dc9493929190610d9f565b60405180910390f35b6101ed610aa9565b6040516101fa9190610de4565b60405180910390f35b6000600160003373ffffffffffffffffffffffffffffffffffffffff1673ffffffffffffffffffffffffffffffffffffffff1681526020019081526020016000209050600081600001540361028d576040517f08c379a000000000000000000000000000000000000000000000000000000000815260040161028490610e5c565b60405180910390fd5b8060010160009054906101000a900460ff16156102df576040517f08c379a00000000000000000000000000000000000000000000000000000000081526004016102d690610ec8565b60405180910390fd5b60018160010160006101000a81548160ff02191690831515021790555081816002018190555080600001546002838154811061031e5761031d610ee8565b5b9060005260206000209060020201600101600082825461033e9190610f46565b925050819055505050565b6002818154811061035957600080fd5b90600052602060002090600202016000915090508060000154908060010154905082565b60008054906101000a900473ffffffffffffffffffffffffffffffffffffffff1681565b6000600282815481106103b7576103b6610ee8565b5b9060005260206000209060020201600101549050919050565b6000600160003373ffffffffffffffffffffffffffffffffffffffff1673ffffffffffffffffffffffffffffffffffffffff16815260200190815260200160002090508060010160009054906101000a900460ff1615610465576040517f08c379a000000000000000000000000000000000000000000000000000000000815260040161045c90610fc6565b60405180910390fd5b3373ffffffffffffffffffffffffffffffffffffffff168273ffffffffffffffffffffffffffffffffffffffff16036104d3576040517f08c379a00000000000000000000000000000000000000000000000000000000081526004016104ca90611032565b60405180910390fd5b5b600073ffffffffffffffffffffffffffffffffffffffff16600160008473ffffffffffffffffffffffffffffffffffffffff1673ffffffffffffffffffffffffffffffffffffffff16815260200190815260200160002060010160019054906101000a900473ffffffffffffffffffffffffffffffffffffffff1673ffffffffffffffffffffffffffffffffffffffff161461064257600160008373ffffffffffffffffffffffffffffffffffffffff1673ffffffffffffffffffffffffffffffffffffffff16815260200190815260200160002060010160019054906101000a900473ffffffffffffffffffffffffffffffffffffffff1691503373ffffffffffffffffffffffffffffffffffffffff168273ffffffffffffffffffffffffffffffffffffffff160361063d576040517f08c379a00000000000000000000000000000000000000000000000000000000081526004016106349061109e565b60405180910390fd5b6104d4565b60018160010160006101000a81548160ff021916908315150217905550818160010160016101000a81548173ffffffffffffffffffffffffffffffffffffffff021916908373ffffffffffffffffffffffffffffffffffffffff1602179055506000600160008473ffffffffffffffffffffffffffffffffffffffff1673ffffffffffffffffffffffffffffffffffffffff16815260200190815260200160002090508060010160009054906101000a900460ff1615610745578160000154600282600201548154811061071957610718610ee8565b5b906000526020600020906002020160010160008282546107399190610f46565b92505081905550610765565b816000015481600001600082825461075d9190610f46565b925050819055505b505050565b6000806000905060005b6002805490508110156107e757816002828154811061079657610795610ee8565b5b90600052602060002090600202016001015411156107da57600281815481106107c2576107c1610ee8565b5b90600052602060002090600202016001015491508092505b8080600101915050610774565b505090565b60606002805480602002602001604051908101604052809291908181526020016000905b8282101561085657838290600052602060002090600202016040518060400160405290816000820154815260200160018201548152505081526020019060010190610810565b50505050905090565b60008054906101000a900473ffffffffffffffffffffffffffffffffffffffff1673ffffffffffffffffffffffffffffffffffffffff163373ffffffffffffffffffffffffffffffffffffffff16146108ed576040517f08c379a00000000000000000000000000000000000000000000000000000000081526004016108e490611130565b60405180910390fd5b600160008273ffffffffffffffffffffffffffffffffffffffff1673ffffffffffffffffffffffffffffffffffffffff16815260200190815260200160002060010160009054906101000a900460ff161561097d576040517f08c379a00000000000000000000000000000000000000000000000000000000081526004016109749061119c565b60405180910390fd5b6000600160008373ffffffffffffffffffffffffffffffffffffffff1673ffffffffffffffffffffffffffffffffffffffff1681526020019081526020016000206000015414610a02576040517f08c379a00000000000000000000000000000000000000000000000000000000081526004016109f99061122e565b60405180910390fd5b60018060008373ffffffffffffffffffffffffffffffffffffffff1673ffffffffffffffffffffffffffffffffffffffff1681526020019081526020016000206000018190555050565b60016020528060005260406000206000915090508060000154908060010160009054906101000a900460ff16908060010160019054906101000a900473ffffffffffffffffffffffffffffffffffffffff16908060020154905084565b60006002610ab561076a565b81548110610ac657610ac5610ee8565b5b906000526020600020906002020160000154905090565b600080fd5b6000819050919050565b610af581610ae2565b8114610b0057600080fd5b50565b600081359050610b1281610aec565b92915050565b600060208284031215610b2e57610b2d610add565b5b6000610b3c84828501610b03565b91505092915050565b6000819050919050565b610b5881610b45565b82525050565b610b6781610ae2565b82525050565b6000604082019050610b826000830185610b4f565b610b8f6020830184610b5e565b9392505050565b600073ffffffffffffffffffffffffffffffffffffffff82169050919050565b6000610bc182610b96565b9050919050565b610bd181610bb6565b82525050565b6000602082019050610bec6000830184610bc8565b92915050565b6000602082019050610c076000830184610b5e565b92915050565b610c1681610bb6565b8114610c2157600080fd5b50565b600081359050610c3381610c0d565b92915050565b600060208284031215610c4f57610c4e610add565b5b6000610c5d84828501610c24565b91505092915050565b600081519050919050565b600082825260208201905092915050565b6000819050602082019050919050565b610c9b81610b45565b82525050565b610caa81610ae2565b82525050565b604082016000820151610cc66000850182610c92565b506020820151610cd96020850182610ca1565b50505050565b6000610ceb8383610cb0565b60408301905092915050565b6000602082019050919050565b6000610d0f82610c66565b610d198185610c71565b9350610d2483610c82565b8060005b83811015610d55578151610d3c8882610cdf565b9750610d4783610cf7565b925050600181019050610d28565b5085935050505092915050565b60006020820190508181036000830152610d7c8184610d04565b905092915050565b60008115159050919050565b610d9981610d84565b82525050565b6000608082019050610db46000830187610b5e565b610dc16020830186610d90565b610dce6040830185610bc8565b610ddb6060830184610b5e565b95945050505050565b6000602082019050610df96000830184610b4f565b92915050565b600082825260208201905092915050565b7f486173206e6f20726967687420746f20766f7465000000000000000000000000600082015250565b6000610e46601483610dff565b9150610e5182610e10565b602082019050919050565b60006020820190508181036000830152610e7581610e39565b9050919050565b7f416c726561647920766f7465642e000000000000000000000000000000000000600082015250565b6000610eb2600e83610dff565b9150610ebd82610e7c565b602082019050919050565b60006020820190508181036000830152610ee181610ea5565b9050919050565b7f4e487b7100000000000000000000000000000000000000000000000000000000600052603260045260246000fd5b7f4e487b7100000000000000000000000000000000000000000000000000000000600052601160045260246000fd5b6000610f5182610ae2565b9150610f5c83610ae2565b9250828201905080821115610f7457610f73610f17565b5b92915050565b7f596f7520616c726561647920766f7465642e0000000000000000000000000000600082015250565b6000610fb0601283610dff565b9150610fbb82610f7a565b602082019050919050565b60006020820190508181036000830152610fdf81610fa3565b9050919050565b7f53656c662d64656c65676174696f6e20697320646973616c6c6f7765642e0000600082015250565b600061101c601e83610dff565b915061102782610fe6565b602082019050919050565b6000602082019050818103600083015261104b8161100f565b9050919050565b7f466f756e64206c6f6f7020696e2064656c65676174696f6e2e00000000000000600082015250565b6000611088601983610dff565b915061109382611052565b602082019050919050565b600060208201905081810360008301526110b78161107b565b9050919050565b7f4f6e6c79206368616972706572736f6e2063616e20676976652072696768742060008201527f746f20766f74652e000000000000000000000000000000000000000000000000602082015250565b600061111a602883610dff565b9150611125826110be565b604082019050919050565b600060208201905081810360008301526111498161110d565b9050919050565b7f54686520766f74657220616c726561647920766f7465642e0000000000000000600082015250565b6000611186601883610dff565b915061119182611150565b602082019050919050565b600060208201905081810360008301526111b581611179565b9050919050565b7f54686520766f74657220616c7265616479206861732077656967687420616e6460008201527f206469646e277420766f7465207965742e000000000000000000000000000000602082015250565b6000611218603183610dff565b9150611223826111bc565b604082019050919050565b600060208201905081810360008301526112478161120b565b905091905056fea2646970667358221220a0d14817d832dc4611f171bedc189f02fe285366638e086b664454105ee250fb64736f6c63430008180033",
  "linkReferences": {},
  "deployedLinkReferences": {}
}